{
  "_format": "hh-sol-artifact-1",
  "contractName": "EZSwap",
  "sourceName": "contracts/EZSwap.sol",
  "abi": [
    {
      "inputs": [
        {
          "internalType": "address",
          "name": "_signer",
          "type": "address"
        },
        {
          "internalType": "address",
          "name": "_devAddress",
          "type": "address"
        },
        {
          "internalType": "uint256",
          "name": "_deadline",
          "type": "uint256"
        }
      ],
      "stateMutability": "nonpayable",
      "type": "constructor"
    },
    {
      "inputs": [],
      "name": "ECDSAInvalidSignature",
      "type": "error"
    },
    {
      "inputs": [
        {
          "internalType": "uint256",
          "name": "length",
          "type": "uint256"
        }
      ],
      "name": "ECDSAInvalidSignatureLength",
      "type": "error"
    },
    {
      "inputs": [
        {
          "internalType": "bytes32",
          "name": "s",
          "type": "bytes32"
        }
      ],
      "name": "ECDSAInvalidSignatureS",
      "type": "error"
    },
    {
      "inputs": [
        {
          "internalType": "address",
          "name": "spender",
          "type": "address"
        },
        {
          "internalType": "uint256",
          "name": "allowance",
          "type": "uint256"
        },
        {
          "internalType": "uint256",
          "name": "needed",
          "type": "uint256"
        }
      ],
      "name": "ERC20InsufficientAllowance",
      "type": "error"
    },
    {
      "inputs": [
        {
          "internalType": "address",
          "name": "sender",
          "type": "address"
        },
        {
          "internalType": "uint256",
          "name": "balance",
          "type": "uint256"
        },
        {
          "internalType": "uint256",
          "name": "needed",
          "type": "uint256"
        }
      ],
      "name": "ERC20InsufficientBalance",
      "type": "error"
    },
    {
      "inputs": [
        {
          "internalType": "address",
          "name": "approver",
          "type": "address"
        }
      ],
      "name": "ERC20InvalidApprover",
      "type": "error"
    },
    {
      "inputs": [
        {
          "internalType": "address",
          "name": "receiver",
          "type": "address"
        }
      ],
      "name": "ERC20InvalidReceiver",
      "type": "error"
    },
    {
      "inputs": [
        {
          "internalType": "address",
          "name": "sender",
          "type": "address"
        }
      ],
      "name": "ERC20InvalidSender",
      "type": "error"
    },
    {
      "inputs": [
        {
          "internalType": "address",
          "name": "spender",
          "type": "address"
        }
      ],
      "name": "ERC20InvalidSpender",
      "type": "error"
    },
    {
      "inputs": [
        {
          "internalType": "address",
          "name": "owner",
          "type": "address"
        }
      ],
      "name": "OwnableInvalidOwner",
      "type": "error"
    },
    {
      "inputs": [
        {
          "internalType": "address",
          "name": "account",
          "type": "address"
        }
      ],
      "name": "OwnableUnauthorizedAccount",
      "type": "error"
    },
    {
      "anonymous": false,
      "inputs": [
        {
          "indexed": true,
          "internalType": "address",
          "name": "owner",
          "type": "address"
        },
        {
          "indexed": true,
          "internalType": "address",
          "name": "spender",
          "type": "address"
        },
        {
          "indexed": false,
          "internalType": "uint256",
          "name": "value",
          "type": "uint256"
        }
      ],
      "name": "Approval",
      "type": "event"
    },
    {
      "anonymous": false,
      "inputs": [
        {
          "indexed": true,
          "internalType": "address",
          "name": "previousOwner",
          "type": "address"
        },
        {
          "indexed": true,
          "internalType": "address",
          "name": "newOwner",
          "type": "address"
        }
      ],
      "name": "OwnershipTransferred",
      "type": "event"
    },
    {
      "anonymous": false,
      "inputs": [
        {
          "indexed": true,
          "internalType": "address",
          "name": "from",
          "type": "address"
        },
        {
          "indexed": true,
          "internalType": "address",
          "name": "to",
          "type": "address"
        },
        {
          "indexed": false,
          "internalType": "uint256",
          "name": "value",
          "type": "uint256"
        }
      ],
      "name": "Transfer",
      "type": "event"
    },
    {
      "inputs": [],
      "name": "DEV_SUPPLY",
      "outputs": [
        {
          "internalType": "uint256",
          "name": "",
          "type": "uint256"
        }
      ],
      "stateMutability": "view",
      "type": "function"
    },
    {
      "inputs": [],
      "name": "MAX_SUPPLY",
      "outputs": [
        {
          "internalType": "uint256",
          "name": "",
          "type": "uint256"
        }
      ],
      "stateMutability": "view",
      "type": "function"
    },
    {
      "inputs": [
        {
          "internalType": "address",
          "name": "owner",
          "type": "address"
        },
        {
          "internalType": "address",
          "name": "spender",
          "type": "address"
        }
      ],
      "name": "allowance",
      "outputs": [
        {
          "internalType": "uint256",
          "name": "",
          "type": "uint256"
        }
      ],
      "stateMutability": "view",
      "type": "function"
    },
    {
      "inputs": [
        {
          "internalType": "address",
          "name": "spender",
          "type": "address"
        },
        {
          "internalType": "uint256",
          "name": "value",
          "type": "uint256"
        }
      ],
      "name": "approve",
      "outputs": [
        {
          "internalType": "bool",
          "name": "",
          "type": "bool"
        }
      ],
      "stateMutability": "nonpayable",
      "type": "function"
    },
    {
      "inputs": [
        {
          "internalType": "address",
          "name": "account",
          "type": "address"
        }
      ],
      "name": "balanceOf",
      "outputs": [
        {
          "internalType": "uint256",
          "name": "",
          "type": "uint256"
        }
      ],
      "stateMutability": "view",
      "type": "function"
    },
    {
      "inputs": [
        {
          "internalType": "address",
          "name": "user",
          "type": "address"
        },
        {
          "internalType": "uint256",
          "name": "amount",
          "type": "uint256"
        },
        {
          "internalType": "bytes",
          "name": "signature",
          "type": "bytes"
        }
      ],
      "name": "claim",
      "outputs": [],
      "stateMutability": "nonpayable",
      "type": "function"
    },
    {
      "inputs": [],
      "name": "claimSigner",
      "outputs": [
        {
          "internalType": "address",
          "name": "",
          "type": "address"
        }
      ],
      "stateMutability": "view",
      "type": "function"
    },
    {
      "inputs": [
        {
          "internalType": "address",
          "name": "",
          "type": "address"
        }
      ],
      "name": "claimed",
      "outputs": [
        {
          "internalType": "bool",
          "name": "",
          "type": "bool"
        }
      ],
      "stateMutability": "view",
      "type": "function"
    },
    {
      "inputs": [],
      "name": "deadline",
      "outputs": [
        {
          "internalType": "uint256",
          "name": "",
          "type": "uint256"
        }
      ],
      "stateMutability": "view",
      "type": "function"
    },
    {
      "inputs": [],
      "name": "decimals",
      "outputs": [
        {
          "internalType": "uint8",
          "name": "",
          "type": "uint8"
        }
      ],
      "stateMutability": "view",
      "type": "function"
    },
    {
      "inputs": [],
      "name": "devAddress",
      "outputs": [
        {
          "internalType": "address",
          "name": "",
          "type": "address"
        }
      ],
      "stateMutability": "view",
      "type": "function"
    },
    {
      "inputs": [],
      "name": "mintToDev",
      "outputs": [],
      "stateMutability": "nonpayable",
      "type": "function"
    },
    {
      "inputs": [],
      "name": "name",
      "outputs": [
        {
          "internalType": "string",
          "name": "",
          "type": "string"
        }
      ],
      "stateMutability": "view",
      "type": "function"
    },
    {
      "inputs": [],
      "name": "owner",
      "outputs": [
        {
          "internalType": "address",
          "name": "",
          "type": "address"
        }
      ],
      "stateMutability": "view",
      "type": "function"
    },
    {
      "inputs": [],
      "name": "renounceOwnership",
      "outputs": [],
      "stateMutability": "nonpayable",
      "type": "function"
    },
    {
      "inputs": [],
      "name": "sweep",
      "outputs": [],
      "stateMutability": "nonpayable",
      "type": "function"
    },
    {
      "inputs": [],
      "name": "symbol",
      "outputs": [
        {
          "internalType": "string",
          "name": "",
          "type": "string"
        }
      ],
      "stateMutability": "view",
      "type": "function"
    },
    {
      "inputs": [],
      "name": "totalSupply",
      "outputs": [
        {
          "internalType": "uint256",
          "name": "",
          "type": "uint256"
        }
      ],
      "stateMutability": "view",
      "type": "function"
    },
    {
      "inputs": [
        {
          "internalType": "address",
          "name": "to",
          "type": "address"
        },
        {
          "internalType": "uint256",
          "name": "value",
          "type": "uint256"
        }
      ],
      "name": "transfer",
      "outputs": [
        {
          "internalType": "bool",
          "name": "",
          "type": "bool"
        }
      ],
      "stateMutability": "nonpayable",
      "type": "function"
    },
    {
      "inputs": [
        {
          "internalType": "address",
          "name": "from",
          "type": "address"
        },
        {
          "internalType": "address",
          "name": "to",
          "type": "address"
        },
        {
          "internalType": "uint256",
          "name": "value",
          "type": "uint256"
        }
      ],
      "name": "transferFrom",
      "outputs": [
        {
          "internalType": "bool",
          "name": "",
          "type": "bool"
        }
      ],
      "stateMutability": "nonpayable",
      "type": "function"
    },
    {
      "inputs": [
        {
          "internalType": "address",
          "name": "newOwner",
          "type": "address"
        }
      ],
      "name": "transferOwnership",
      "outputs": [],
      "stateMutability": "nonpayable",
      "type": "function"
    },
    {
      "inputs": [
        {
          "internalType": "address",
          "name": "newSigner",
          "type": "address"
        }
      ],
      "name": "updateClaimSigner",
      "outputs": [],
      "stateMutability": "nonpayable",
      "type": "function"
    },
    {
      "inputs": [
        {
          "internalType": "uint256",
          "name": "newDeadline",
          "type": "uint256"
        }
      ],
      "name": "updateDeadline",
      "outputs": [],
      "stateMutability": "nonpayable",
      "type": "function"
    },
    {
      "inputs": [
        {
          "internalType": "address",
          "name": "newDevAddress",
          "type": "address"
        }
      ],
      "name": "updateDevAddress",
      "outputs": [],
      "stateMutability": "nonpayable",
      "type": "function"
    }
  ],
  "bytecode": "0x60806040526000600a60006101000a81548160ff0219169083151502179055503480156200002c57600080fd5b5060405162002efd38038062002efd833981810160405281019062000052919062000492565b336040518060400160405280600781526020017f455a2054657374000000000000000000000000000000000000000000000000008152506040518060400160405280600381526020017f455a5400000000000000000000000000000000000000000000000000000000008152508160039081620000d091906200075e565b508060049081620000e291906200075e565b505050600073ffffffffffffffffffffffffffffffffffffffff168173ffffffffffffffffffffffffffffffffffffffff16036200015a5760006040517f1e4fbdf700000000000000000000000000000000000000000000000000000000815260040162000151919062000856565b60405180910390fd5b6200016b816200032760201b60201c565b50600073ffffffffffffffffffffffffffffffffffffffff168373ffffffffffffffffffffffffffffffffffffffff1603620001de576040517f08c379a0000000000000000000000000000000000000000000000000000000008152600401620001d590620008fa565b60405180910390fd5b600073ffffffffffffffffffffffffffffffffffffffff168273ffffffffffffffffffffffffffffffffffffffff160362000250576040517f08c379a0000000000000000000000000000000000000000000000000000000008152600401620002479062000992565b60405180910390fd5b43811162000295576040517f08c379a00000000000000000000000000000000000000000000000000000000081526004016200028c9062000a2a565b60405180910390fd5b82600660006101000a81548173ffffffffffffffffffffffffffffffffffffffff021916908373ffffffffffffffffffffffffffffffffffffffff16021790555081600760006101000a81548173ffffffffffffffffffffffffffffffffffffffff021916908373ffffffffffffffffffffffffffffffffffffffff1602179055508060098190555050505062000a4c565b6000600560009054906101000a900473ffffffffffffffffffffffffffffffffffffffff16905081600560006101000a81548173ffffffffffffffffffffffffffffffffffffffff021916908373ffffffffffffffffffffffffffffffffffffffff1602179055508173ffffffffffffffffffffffffffffffffffffffff168173ffffffffffffffffffffffffffffffffffffffff167f8be0079c531659141344cd1fd0a4f28419497f9722a3daafe3b4186f6b6457e060405160405180910390a35050565b600080fd5b600073ffffffffffffffffffffffffffffffffffffffff82169050919050565b60006200041f82620003f2565b9050919050565b620004318162000412565b81146200043d57600080fd5b50565b600081519050620004518162000426565b92915050565b6000819050919050565b6200046c8162000457565b81146200047857600080fd5b50565b6000815190506200048c8162000461565b92915050565b600080600060608486031215620004ae57620004ad620003ed565b5b6000620004be8682870162000440565b9350506020620004d18682870162000440565b9250506040620004e4868287016200047b565b9150509250925092565b600081519050919050565b7f4e487b7100000000000000000000000000000000000000000000000000000000600052604160045260246000fd5b7f4e487b7100000000000000000000000000000000000000000000000000000000600052602260045260246000fd5b600060028204905060018216806200057057607f821691505b60208210810362000586576200058562000528565b5b50919050565b60008190508160005260206000209050919050565b60006020601f8301049050919050565b600082821b905092915050565b600060088302620005f07fffffffffffffffffffffffffffffffffffffffffffffffffffffffffffffffff82620005b1565b620005fc8683620005b1565b95508019841693508086168417925050509392505050565b6000819050919050565b60006200063f62000639620006338462000457565b62000614565b62000457565b9050919050565b6000819050919050565b6200065b836200061e565b620006736200066a8262000646565b848454620005be565b825550505050565b600090565b6200068a6200067b565b6200069781848462000650565b505050565b5b81811015620006bf57620006b360008262000680565b6001810190506200069d565b5050565b601f8211156200070e57620006d8816200058c565b620006e384620005a1565b81016020851015620006f3578190505b6200070b6200070285620005a1565b8301826200069c565b50505b505050565b600082821c905092915050565b6000620007336000198460080262000713565b1980831691505092915050565b60006200074e838362000720565b9150826002028217905092915050565b6200076982620004ee565b67ffffffffffffffff811115620007855762000784620004f9565b5b62000791825462000557565b6200079e828285620006c3565b600060209050601f831160018114620007d65760008415620007c1578287015190505b620007cd858262000740565b8655506200083d565b601f198416620007e6866200058c565b60005b828110156200081057848901518255600182019150602085019450602081019050620007e9565b868310156200083057848901516200082c601f89168262000720565b8355505b6001600288020188555050505b505050505050565b620008508162000412565b82525050565b60006020820190506200086d600083018462000845565b92915050565b600082825260208201905092915050565b7f5369676e657220616464726573732063616e6e6f7420626520746865207a657260008201527f6f20616464726573730000000000000000000000000000000000000000000000602082015250565b6000620008e260298362000873565b9150620008ef8262000884565b604082019050919050565b600060208201905081810360008301526200091581620008d3565b9050919050565b7f446576656c6f70657220616464726573732063616e6e6f74206265207468652060008201527f7a65726f20616464726573730000000000000000000000000000000000000000602082015250565b60006200097a602c8362000873565b915062000987826200091c565b604082019050919050565b60006020820190508181036000830152620009ad816200096b565b9050919050565b7f4e657720646561646c696e65206d75737420626520696e20746865206675747560008201527f7265000000000000000000000000000000000000000000000000000000000000602082015250565b600062000a1260228362000873565b915062000a1f82620009b4565b604082019050919050565b6000602082019050818103600083015262000a458162000a03565b9050919050565b6124a18062000a5c6000396000f3fe608060405234801561001057600080fd5b50600436106101585760003560e01c806370a08231116100c3578063a9059cbb1161007c578063a9059cbb1461036b578063c05f486e1461039b578063c884ef83146103b9578063d8ee36cb146103e9578063dd62ed3e14610407578063f2fde38b1461043757610158565b806370a08231146102bd578063715018a6146102ed57806385033762146102f75780638da5cb5b146103135780638f0bc1521461033157806395d89b411461034d57610158565b8063313ce56711610115578063313ce5671461022157806332cb6b0c1461023f57806335faa4161461025d5780633ad10ef614610267578063404fc9a71461028557806342af1884146102a157610158565b806306fdde031461015d578063095ea7b31461017b57806318160ddd146101ab57806323b872dd146101c957806329dcb0cf146101f95780632c10959a14610217575b600080fd5b610165610453565b60405161017291906119e1565b60405180910390f35b61019560048036038101906101909190611aa1565b6104e5565b6040516101a29190611afc565b60405180910390f35b6101b3610508565b6040516101c09190611b26565b60405180910390f35b6101e360048036038101906101de9190611b41565b610512565b6040516101f09190611afc565b60405180910390f35b610201610541565b60405161020e9190611b26565b60405180910390f35b61021f610547565b005b61022961065d565b6040516102369190611bb0565b60405180910390f35b610247610666565b6040516102549190611b26565b60405180910390f35b610265610676565b005b61026f610775565b60405161027c9190611bda565b60405180910390f35b61029f600480360381019061029a9190611bf5565b61079b565b005b6102bb60048036038101906102b69190611c22565b610856565b005b6102d760048036038101906102d29190611bf5565b6108aa565b6040516102e49190611b26565b60405180910390f35b6102f56108f2565b005b610311600480360381019061030c9190611bf5565b610906565b005b61031b6109c1565b6040516103289190611bda565b60405180910390f35b61034b60048036038101906103469190611cb4565b6109eb565b005b610355610c43565b60405161036291906119e1565b60405180910390f35b61038560048036038101906103809190611aa1565b610cd5565b6040516103929190611afc565b60405180910390f35b6103a3610cf8565b6040516103b09190611b26565b60405180910390f35b6103d360048036038101906103ce9190611bf5565b610d06565b6040516103e09190611afc565b60405180910390f35b6103f1610d26565b6040516103fe9190611bda565b60405180910390f35b610421600480360381019061041c9190611d28565b610d4c565b60405161042e9190611b26565b60405180910390f35b610451600480360381019061044c9190611bf5565b610dd3565b005b60606003805461046290611d97565b80601f016020809104026020016040519081016040528092919081815260200182805461048e90611d97565b80156104db5780601f106104b0576101008083540402835291602001916104db565b820191906000526020600020905b8154815290600101906020018083116104be57829003601f168201915b5050505050905090565b6000806104f0610e59565b90506104fd818585610e61565b600191505092915050565b6000600254905090565b60008061051d610e59565b905061052a858285610e73565b610535858585610f07565b60019150509392505050565b60095481565b61054f610ffb565b600a60009054906101000a900460ff161561059f576040517f08c379a000000000000000000000000000000000000000000000000000000000815260040161059690611e3a565b60405180910390fd5b6b033b2e3c9fd0803ce800000069152d02c7e14af68000006105bf610508565b6105c99190611e89565b111561060a576040517f08c379a000000000000000000000000000000000000000000000000000000000815260040161060190611f09565b60405180910390fd5b6001600a60006101000a81548160ff02191690831515021790555061065b600760009054906101000a900473ffffffffffffffffffffffffffffffffffffffff1669152d02c7e14af6800000611082565b565b60006012905090565b6b033b2e3c9fd0803ce800000081565b61067e610ffb565b60095443116106c2576040517f08c379a00000000000000000000000000000000000000000000000000000000081526004016106b990611f75565b60405180910390fd5b60006106cc610508565b6b033b2e3c9fd0803ce80000006106e39190611f95565b90506b033b2e3c9fd0803ce8000000816106fb610508565b6107059190611e89565b1115610746576040517f08c379a000000000000000000000000000000000000000000000000000000000815260040161073d90611f09565b60405180910390fd5b610772600760009054906101000a900473ffffffffffffffffffffffffffffffffffffffff1682611082565b50565b600760009054906101000a900473ffffffffffffffffffffffffffffffffffffffff1681565b6107a3610ffb565b600073ffffffffffffffffffffffffffffffffffffffff168173ffffffffffffffffffffffffffffffffffffffff1603610812576040517f08c379a00000000000000000000000000000000000000000000000000000000081526004016108099061203b565b60405180910390fd5b80600660006101000a81548173ffffffffffffffffffffffffffffffffffffffff021916908373ffffffffffffffffffffffffffffffffffffffff16021790555050565b61085e610ffb565b4381116108a0576040517f08c379a0000000000000000000000000000000000000000000000000000000008152600401610897906120cd565b60405180910390fd5b8060098190555050565b60008060008373ffffffffffffffffffffffffffffffffffffffff1673ffffffffffffffffffffffffffffffffffffffff168152602001908152602001600020549050919050565b6108fa610ffb565b6109046000611104565b565b61090e610ffb565b600073ffffffffffffffffffffffffffffffffffffffff168173ffffffffffffffffffffffffffffffffffffffff160361097d576040517f08c379a00000000000000000000000000000000000000000000000000000000081526004016109749061215f565b60405180910390fd5b80600760006101000a81548173ffffffffffffffffffffffffffffffffffffffff021916908373ffffffffffffffffffffffffffffffffffffffff16021790555050565b6000600560009054906101000a900473ffffffffffffffffffffffffffffffffffffffff16905090565b600954431115610a30576040517f08c379a0000000000000000000000000000000000000000000000000000000008152600401610a27906121cb565b60405180910390fd5b600860008573ffffffffffffffffffffffffffffffffffffffff1673ffffffffffffffffffffffffffffffffffffffff16815260200190815260200160002060009054906101000a900460ff1615610abd576040517f08c379a0000000000000000000000000000000000000000000000000000000008152600401610ab49061225d565b60405180910390fd5b6b033b2e3c9fd0803ce800000083610ad3610508565b610add9190611e89565b1115610b1e576040517f08c379a0000000000000000000000000000000000000000000000000000000008152600401610b15906122c9565b60405180910390fd5b6000848430604051602001610b35939291906122e9565b604051602081830303815290604052805190602001209050610b9b83838080601f016020809104026020016040519081016040528093929190818152602001838380828437600081840152601f19601f82011690508083019250505050505050826111ca565b610bda576040517f08c379a0000000000000000000000000000000000000000000000000000000008152600401610bd19061236c565b60405180910390fd5b6001600860008773ffffffffffffffffffffffffffffffffffffffff1673ffffffffffffffffffffffffffffffffffffffff16815260200190815260200160002060006101000a81548160ff021916908315150217905550610c3c8585611082565b5050505050565b606060048054610c5290611d97565b80601f0160208091040260200160405190810160405280929190818152602001828054610c7e90611d97565b8015610ccb5780601f10610ca057610100808354040283529160200191610ccb565b820191906000526020600020905b815481529060010190602001808311610cae57829003601f168201915b5050505050905090565b600080610ce0610e59565b9050610ced818585610f07565b600191505092915050565b69152d02c7e14af680000081565b60086020528060005260406000206000915054906101000a900460ff1681565b600660009054906101000a900473ffffffffffffffffffffffffffffffffffffffff1681565b6000600160008473ffffffffffffffffffffffffffffffffffffffff1673ffffffffffffffffffffffffffffffffffffffff16815260200190815260200160002060008373ffffffffffffffffffffffffffffffffffffffff1673ffffffffffffffffffffffffffffffffffffffff16815260200190815260200160002054905092915050565b610ddb610ffb565b600073ffffffffffffffffffffffffffffffffffffffff168173ffffffffffffffffffffffffffffffffffffffff1603610e4d5760006040517f1e4fbdf7000000000000000000000000000000000000000000000000000000008152600401610e449190611bda565b60405180910390fd5b610e5681611104565b50565b600033905090565b610e6e838383600161123f565b505050565b6000610e7f8484610d4c565b90507fffffffffffffffffffffffffffffffffffffffffffffffffffffffffffffffff8114610f015781811015610ef1578281836040517ffb8f41b2000000000000000000000000000000000000000000000000000000008152600401610ee89392919061238c565b60405180910390fd5b610f008484848403600061123f565b5b50505050565b600073ffffffffffffffffffffffffffffffffffffffff168373ffffffffffffffffffffffffffffffffffffffff1603610f795760006040517f96c6fd1e000000000000000000000000000000000000000000000000000000008152600401610f709190611bda565b60405180910390fd5b600073ffffffffffffffffffffffffffffffffffffffff168273ffffffffffffffffffffffffffffffffffffffff1603610feb5760006040517fec442f05000000000000000000000000000000000000000000000000000000008152600401610fe29190611bda565b60405180910390fd5b610ff6838383611416565b505050565b611003610e59565b73ffffffffffffffffffffffffffffffffffffffff166110216109c1565b73ffffffffffffffffffffffffffffffffffffffff161461108057611044610e59565b6040517f118cdaa70000000000000000000000000000000000000000000000000000000081526004016110779190611bda565b60405180910390fd5b565b600073ffffffffffffffffffffffffffffffffffffffff168273ffffffffffffffffffffffffffffffffffffffff16036110f45760006040517fec442f050000000000000000000000000000000000000000000000000000000081526004016110eb9190611bda565b60405180910390fd5b61110060008383611416565b5050565b6000600560009054906101000a900473ffffffffffffffffffffffffffffffffffffffff16905081600560006101000a81548173ffffffffffffffffffffffffffffffffffffffff021916908373ffffffffffffffffffffffffffffffffffffffff1602179055508173ffffffffffffffffffffffffffffffffffffffff168173ffffffffffffffffffffffffffffffffffffffff167f8be0079c531659141344cd1fd0a4f28419497f9722a3daafe3b4186f6b6457e060405160405180910390a35050565b6000600660009054906101000a900473ffffffffffffffffffffffffffffffffffffffff1673ffffffffffffffffffffffffffffffffffffffff16611220846112128561163b565b61167190919063ffffffff16565b73ffffffffffffffffffffffffffffffffffffffff1614905092915050565b600073ffffffffffffffffffffffffffffffffffffffff168473ffffffffffffffffffffffffffffffffffffffff16036112b15760006040517fe602df050000000000000000000000000000000000000000000000000000000081526004016112a89190611bda565b60405180910390fd5b600073ffffffffffffffffffffffffffffffffffffffff168373ffffffffffffffffffffffffffffffffffffffff16036113235760006040517f94280d6200000000000000000000000000000000000000000000000000000000815260040161131a9190611bda565b60405180910390fd5b81600160008673ffffffffffffffffffffffffffffffffffffffff1673ffffffffffffffffffffffffffffffffffffffff16815260200190815260200160002060008573ffffffffffffffffffffffffffffffffffffffff1673ffffffffffffffffffffffffffffffffffffffff168152602001908152602001600020819055508015611410578273ffffffffffffffffffffffffffffffffffffffff168473ffffffffffffffffffffffffffffffffffffffff167f8c5be1e5ebec7d5bd14f71427d1e84f3dd0314c0f7b2291e5b200ac8c7c3b925846040516114079190611b26565b60405180910390a35b50505050565b600073ffffffffffffffffffffffffffffffffffffffff168373ffffffffffffffffffffffffffffffffffffffff160361146857806002600082825461145c9190611e89565b9250508190555061153b565b60008060008573ffffffffffffffffffffffffffffffffffffffff1673ffffffffffffffffffffffffffffffffffffffff168152602001908152602001600020549050818110156114f4578381836040517fe450d38c0000000000000000000000000000000000000000000000000000000081526004016114eb9392919061238c565b60405180910390fd5b8181036000808673ffffffffffffffffffffffffffffffffffffffff1673ffffffffffffffffffffffffffffffffffffffff16815260200190815260200160002081905550505b600073ffffffffffffffffffffffffffffffffffffffff168273ffffffffffffffffffffffffffffffffffffffff160361158457806002600082825403925050819055506115d1565b806000808473ffffffffffffffffffffffffffffffffffffffff1673ffffffffffffffffffffffffffffffffffffffff168152602001908152602001600020600082825401925050819055505b8173ffffffffffffffffffffffffffffffffffffffff168373ffffffffffffffffffffffffffffffffffffffff167fddf252ad1be2c89b69c2b068fc378daa952ba7f163c4a11628f55a4df523b3ef8360405161162e9190611b26565b60405180910390a3505050565b60007f19457468657265756d205369676e6564204d6573736167653a0a33320000000060005281601c52603c6000209050919050565b600080600080611681868661169d565b92509250925061169182826116f9565b82935050505092915050565b600080600060418451036116e25760008060006020870151925060408701519150606087015160001a90506116d48882858561185d565b9550955095505050506116f2565b60006002855160001b9250925092505b9250925092565b6000600381111561170d5761170c6123c3565b5b8260038111156117205761171f6123c3565b5b0315611859576001600381111561173a576117396123c3565b5b82600381111561174d5761174c6123c3565b5b03611784576040517ff645eedf00000000000000000000000000000000000000000000000000000000815260040160405180910390fd5b60026003811115611798576117976123c3565b5b8260038111156117ab576117aa6123c3565b5b036117f0578060001c6040517ffce698f70000000000000000000000000000000000000000000000000000000081526004016117e79190611b26565b60405180910390fd5b600380811115611803576118026123c3565b5b826003811115611816576118156123c3565b5b0361185857806040517fd78bce0c00000000000000000000000000000000000000000000000000000000815260040161184f919061240b565b60405180910390fd5b5b5050565b60008060007f7fffffffffffffffffffffffffffffff5d576e7357a4501ddfe92f46681b20a08460001c111561189d576000600385925092509250611947565b6000600188888888604051600081526020016040526040516118c29493929190612426565b6020604051602081039080840390855afa1580156118e4573d6000803e3d6000fd5b505050602060405103519050600073ffffffffffffffffffffffffffffffffffffffff168173ffffffffffffffffffffffffffffffffffffffff160361193857600060016000801b93509350935050611947565b8060008060001b935093509350505b9450945094915050565b600081519050919050565b600082825260208201905092915050565b60005b8381101561198b578082015181840152602081019050611970565b60008484015250505050565b6000601f19601f8301169050919050565b60006119b382611951565b6119bd818561195c565b93506119cd81856020860161196d565b6119d681611997565b840191505092915050565b600060208201905081810360008301526119fb81846119a8565b905092915050565b600080fd5b600080fd5b600073ffffffffffffffffffffffffffffffffffffffff82169050919050565b6000611a3882611a0d565b9050919050565b611a4881611a2d565b8114611a5357600080fd5b50565b600081359050611a6581611a3f565b92915050565b6000819050919050565b611a7e81611a6b565b8114611a8957600080fd5b50565b600081359050611a9b81611a75565b92915050565b60008060408385031215611ab857611ab7611a03565b5b6000611ac685828601611a56565b9250506020611ad785828601611a8c565b9150509250929050565b60008115159050919050565b611af681611ae1565b82525050565b6000602082019050611b116000830184611aed565b92915050565b611b2081611a6b565b82525050565b6000602082019050611b3b6000830184611b17565b92915050565b600080600060608486031215611b5a57611b59611a03565b5b6000611b6886828701611a56565b9350506020611b7986828701611a56565b9250506040611b8a86828701611a8c565b9150509250925092565b600060ff82169050919050565b611baa81611b94565b82525050565b6000602082019050611bc56000830184611ba1565b92915050565b611bd481611a2d565b82525050565b6000602082019050611bef6000830184611bcb565b92915050565b600060208284031215611c0b57611c0a611a03565b5b6000611c1984828501611a56565b91505092915050565b600060208284031215611c3857611c37611a03565b5b6000611c4684828501611a8c565b91505092915050565b600080fd5b600080fd5b600080fd5b60008083601f840112611c7457611c73611c4f565b5b8235905067ffffffffffffffff811115611c9157611c90611c54565b5b602083019150836001820283011115611cad57611cac611c59565b5b9250929050565b60008060008060608587031215611cce57611ccd611a03565b5b6000611cdc87828801611a56565b9450506020611ced87828801611a8c565b935050604085013567ffffffffffffffff811115611d0e57611d0d611a08565b5b611d1a87828801611c5e565b925092505092959194509250565b60008060408385031215611d3f57611d3e611a03565b5b6000611d4d85828601611a56565b9250506020611d5e85828601611a56565b9150509250929050565b7f4e487b7100000000000000000000000000000000000000000000000000000000600052602260045260246000fd5b60006002820490506001821680611daf57607f821691505b602082108103611dc257611dc1611d68565b5b50919050565b7f496e697469616c20646576206d696e74696e672068617320616c72656164792060008201527f6265656e20646f6e650000000000000000000000000000000000000000000000602082015250565b6000611e2460298361195c565b9150611e2f82611dc8565b604082019050919050565b60006020820190508181036000830152611e5381611e17565b9050919050565b7f4e487b7100000000000000000000000000000000000000000000000000000000600052601160045260246000fd5b6000611e9482611a6b565b9150611e9f83611a6b565b9250828201905080821115611eb757611eb6611e5a565b5b92915050565b7f4d696e74696e6720776f756c6420657863656564206d617820737570706c7900600082015250565b6000611ef3601f8361195c565b9150611efe82611ebd565b602082019050919050565b60006020820190508181036000830152611f2281611ee6565b9050919050565b7f54686520646561646c696e6520686173206e6f74207061737365642079657400600082015250565b6000611f5f601f8361195c565b9150611f6a82611f29565b602082019050919050565b60006020820190508181036000830152611f8e81611f52565b9050919050565b6000611fa082611a6b565b9150611fab83611a6b565b9250828203905081811115611fc357611fc2611e5a565b5b92915050565b7f4e6577207369676e65722063616e6e6f7420626520746865207a65726f20616460008201527f6472657373000000000000000000000000000000000000000000000000000000602082015250565b600061202560258361195c565b915061203082611fc9565b604082019050919050565b6000602082019050818103600083015261205481612018565b9050919050565b7f4e657720646561646c696e65206d75737420626520696e20746865206675747560008201527f7265000000000000000000000000000000000000000000000000000000000000602082015250565b60006120b760228361195c565b91506120c28261205b565b604082019050919050565b600060208201905081810360008301526120e6816120aa565b9050919050565b7f4e657720646576656c6f70657220616464726573732063616e6e6f742062652060008201527f746865207a65726f206164647265737300000000000000000000000000000000602082015250565b600061214960308361195c565b9150612154826120ed565b604082019050919050565b600060208201905081810360008301526121788161213c565b9050919050565b7f436c61696d20706572696f64206973206f766572000000000000000000000000600082015250565b60006121b560148361195c565b91506121c08261217f565b602082019050919050565b600060208201905081810360008301526121e4816121a8565b9050919050565b7f546f6b656e7320616c726561647920636c61696d656420666f7220746869732060008201527f6164647265737300000000000000000000000000000000000000000000000000602082015250565b600061224760278361195c565b9150612252826121eb565b604082019050919050565b600060208201905081810360008301526122768161223a565b9050919050565b7f436c61696d20776f756c6420657863656564206d617820737570706c79000000600082015250565b60006122b3601d8361195c565b91506122be8261227d565b602082019050919050565b600060208201905081810360008301526122e2816122a6565b9050919050565b60006060820190506122fe6000830186611bcb565b61230b6020830185611b17565b6123186040830184611bcb565b949350505050565b7f496e76616c6964207369676e6174757265000000000000000000000000000000600082015250565b600061235660118361195c565b915061236182612320565b602082019050919050565b6000602082019050818103600083015261238581612349565b9050919050565b60006060820190506123a16000830186611bcb565b6123ae6020830185611b17565b6123bb6040830184611b17565b949350505050565b7f4e487b7100000000000000000000000000000000000000000000000000000000600052602160045260246000fd5b6000819050919050565b612405816123f2565b82525050565b600060208201905061242060008301846123fc565b92915050565b600060808201905061243b60008301876123fc565b6124486020830186611ba1565b61245560408301856123fc565b61246260608301846123fc565b9594505050505056fea264697066735822122097d56519fac8f05c775621054f9fd94b6bbb73dc6aee533926156b5e28a2748564736f6c63430008140033",
  "linkReferences": {},
  "deployedLinkReferences": {}
}